{
  "_format": "hh-sol-artifact-1",
  "contractName": "PrivateVoting",
  "sourceName": "contracts/PrivateVoting.sol",
  "abi": [
    {
      "anonymous": false,
      "inputs": [
        {
          "indexed": true,
          "internalType": "uint256",
          "name": "electionId",
          "type": "uint256"
        },
        {
          "indexed": false,
          "internalType": "string",
          "name": "title",
          "type": "string"
        },
        {
          "indexed": false,
          "internalType": "uint256",
          "name": "startTime",
          "type": "uint256"
        },
        {
          "indexed": false,
          "internalType": "uint256",
          "name": "endTime",
          "type": "uint256"
        }
      ],
      "name": "ElectionCreated",
      "type": "event"
    },
    {
      "anonymous": false,
      "inputs": [
        {
          "indexed": true,
          "internalType": "uint256",
          "name": "electionId",
          "type": "uint256"
        },
        {
          "indexed": false,
          "internalType": "uint256",
          "name": "totalVotes",
          "type": "uint256"
        }
      ],
      "name": "ElectionRevealed",
      "type": "event"
    },
    {
      "anonymous": false,
      "inputs": [
        {
          "indexed": true,
          "internalType": "uint256",
          "name": "electionId",
          "type": "uint256"
        },
        {
          "indexed": true,
          "internalType": "address",
          "name": "voter",
          "type": "address"
        }
      ],
      "name": "VoteCasted",
      "type": "event"
    },
    {
      "inputs": [
        {
          "internalType": "uint256",
          "name": "_electionId",
          "type": "uint256"
        },
        {
          "internalType": "uint256",
          "name": "_candidateId",
          "type": "uint256"
        }
      ],
      "name": "castVote",
      "outputs": [],
      "stateMutability": "nonpayable",
      "type": "function"
    },
    {
      "inputs": [
        {
          "internalType": "string",
          "name": "_title",
          "type": "string"
        },
        {
          "internalType": "string",
          "name": "_description",
          "type": "string"
        },
        {
          "internalType": "uint256",
          "name": "_startTime",
          "type": "uint256"
        },
        {
          "internalType": "uint256",
          "name": "_endTime",
          "type": "uint256"
        },
        {
          "internalType": "string[]",
          "name": "_candidateNames",
          "type": "string[]"
        }
      ],
      "name": "createElection",
      "outputs": [
        {
          "internalType": "uint256",
          "name": "",
          "type": "uint256"
        }
      ],
      "stateMutability": "nonpayable",
      "type": "function"
    },
    {
      "inputs": [
        {
          "internalType": "uint256",
          "name": "",
          "type": "uint256"
        }
      ],
      "name": "elections",
      "outputs": [
        {
          "internalType": "uint256",
          "name": "id",
          "type": "uint256"
        },
        {
          "internalType": "string",
          "name": "title",
          "type": "string"
        },
        {
          "internalType": "string",
          "name": "description",
          "type": "string"
        },
        {
          "internalType": "uint256",
          "name": "startTime",
          "type": "uint256"
        },
        {
          "internalType": "uint256",
          "name": "endTime",
          "type": "uint256"
        },
        {
          "internalType": "bool",
          "name": "isRevealed",
          "type": "bool"
        },
        {
          "internalType": "address",
          "name": "creator",
          "type": "address"
        }
      ],
      "stateMutability": "view",
      "type": "function"
    },
    {
      "inputs": [
        {
          "internalType": "uint256",
          "name": "_electionId",
          "type": "uint256"
        }
      ],
      "name": "getCandidates",
      "outputs": [
        {
          "internalType": "uint256[]",
          "name": "ids",
          "type": "uint256[]"
        },
        {
          "internalType": "string[]",
          "name": "names",
          "type": "string[]"
        }
      ],
      "stateMutability": "view",
      "type": "function"
    },
    {
      "inputs": [
        {
          "internalType": "uint256",
          "name": "_electionId",
          "type": "uint256"
        }
      ],
      "name": "getResults",
      "outputs": [
        {
          "internalType": "uint256[]",
          "name": "ids",
          "type": "uint256[]"
        },
        {
          "internalType": "uint256[]",
          "name": "voteCounts",
          "type": "uint256[]"
        }
      ],
      "stateMutability": "view",
      "type": "function"
    },
    {
      "inputs": [
        {
          "internalType": "uint256",
          "name": "_electionId",
          "type": "uint256"
        }
      ],
      "name": "tallyVotes",
      "outputs": [],
      "stateMutability": "nonpayable",
      "type": "function"
    }
  ],
  "bytecode": "0x6080604052600160005534801561001557600080fd5b50611f1e806100256000396000f3fe608060405234801561001057600080fd5b50600436106100625760003560e01c80632c0a3f89146100675780633e39a7a5146100835780634d318b0e146100b45780635e6fef01146100d057806377de959f1461010657806381a60c0d14610136575b600080fd5b610081600480360381019061007c9190610eda565b610167565b005b61009d60048036038101906100989190610f1a565b6104bd565b6040516100ab929190611157565b60405180910390f35b6100ce60048036038101906100c99190610f1a565b6106ce565b005b6100ea60048036038101906100e59190610f1a565b610857565b6040516100fd9796959493929190611243565b60405180910390f35b610120600480360381019061011b91906114db565b6109d6565b60405161012d91906115aa565b60405180910390f35b610150600480360381019061014b9190610f1a565b610ca2565b60405161015e9291906115c5565b60405180910390f35b600060016000848152602001908152602001600020905080600301544210156101c5576040517f08c379a00000000000000000000000000000000000000000000000000000000081526004016101bc90611648565b60405180910390fd5b806004015442111561020c576040517f08c379a0000000000000000000000000000000000000000000000000000000008152600401610203906116b4565b60405180910390fd5b6003600084815260200190815260200160002060003373ffffffffffffffffffffffffffffffffffffffff1673ffffffffffffffffffffffffffffffffffffffff16815260200190815260200160002060009054906101000a900460ff16156102aa576040517f08c379a00000000000000000000000000000000000000000000000000000000081526004016102a190611746565b60405180910390fd5b8060050160009054906101000a900460ff16156102fc576040517f08c379a00000000000000000000000000000000000000000000000000000000081526004016102f3906117d8565b60405180910390fd5b6000806002600086815260200190815260200160002080549050905060005b818110156103c85784600260008881526020019081526020016000208281548110610349576103486117f8565b5b906000526020600020906003020160000154036103b557600260008781526020019081526020016000208181548110610385576103846117f8565b5b906000526020600020906003020160020160008154809291906103a790611856565b9190505550600192506103c8565b80806103c090611856565b91505061031b565b5081610409576040517f08c379a0000000000000000000000000000000000000000000000000000000008152600401610400906118ea565b60405180910390fd5b60016003600087815260200190815260200160002060003373ffffffffffffffffffffffffffffffffffffffff1673ffffffffffffffffffffffffffffffffffffffff16815260200190815260200160002060006101000a81548160ff0219169083151502179055503373ffffffffffffffffffffffffffffffffffffffff16857fd8d46ecf72f6103ff400e47d1b5fdfe248d4ca34a4acd39f63fbe903c8f7e7bd60405160405180910390a35050505050565b6060806000600260008581526020019081526020016000208054905090508067ffffffffffffffff8111156104f5576104f46112ca565b5b6040519080825280602002602001820160405280156105235781602001602082028036833780820191505090505b5092508067ffffffffffffffff8111156105405761053f6112ca565b5b60405190808252806020026020018201604052801561057357816020015b606081526020019060019003908161055e5790505b50915060005b818110156106c7576002600086815260200190815260200160002081815481106105a6576105a56117f8565b5b9060005260206000209060030201600001548482815181106105cb576105ca6117f8565b5b6020026020010181815250506002600086815260200190815260200160002081815481106105fc576105fb6117f8565b5b9060005260206000209060030201600101805461061890611939565b80601f016020809104026020016040519081016040528092919081815260200182805461064490611939565b80156106915780601f1061066657610100808354040283529160200191610691565b820191906000526020600020905b81548152906001019060200180831161067457829003601f168201915b50505050508382815181106106a9576106a86117f8565b5b602002602001018190525080806106bf90611856565b915050610579565b5050915091565b60006001600083815260200190815260200160002090508060040154421161072b576040517f08c379a0000000000000000000000000000000000000000000000000000000008152600401610722906119dc565b60405180910390fd5b8060050160009054906101000a900460ff161561077d576040517f08c379a000000000000000000000000000000000000000000000000000000000815260040161077490611a48565b60405180910390fd5b60018160050160006101000a81548160ff0219169083151502179055506000806002600085815260200190815260200160002080549050905060005b81811015610818576002600086815260200190815260200160002081815481106107e6576107e56117f8565b5b906000526020600020906003020160020154836108039190611a68565b9250808061081090611856565b9150506107b9565b50837fd3b9cd24d7923b223f24ebf0353c39b2105f8e4493ffb72002fe2559174da7598360405161084991906115aa565b60405180910390a250505050565b600160205280600052604060002060009150905080600001549080600101805461088090611939565b80601f01602080910402602001604051908101604052809291908181526020018280546108ac90611939565b80156108f95780601f106108ce576101008083540402835291602001916108f9565b820191906000526020600020905b8154815290600101906020018083116108dc57829003601f168201915b50505050509080600201805461090e90611939565b80601f016020809104026020016040519081016040528092919081815260200182805461093a90611939565b80156109875780601f1061095c57610100808354040283529160200191610987565b820191906000526020600020905b81548152906001019060200180831161096a57829003601f168201915b5050505050908060030154908060040154908060050160009054906101000a900460ff16908060050160019054906101000a900473ffffffffffffffffffffffffffffffffffffffff16905087565b6000838311610a1a576040517f08c379a0000000000000000000000000000000000000000000000000000000008152600401610a1190611b0e565b60405180910390fd5b600282511015610a5f576040517f08c379a0000000000000000000000000000000000000000000000000000000008152600401610a5690611b7a565b60405180910390fd5b6000805490506040518060e001604052808281526020018881526020018781526020018681526020018581526020016000151581526020013373ffffffffffffffffffffffffffffffffffffffff1681525060016000838152602001908152602001600020600082015181600001556020820151816001019081610ae39190611d46565b506040820151816002019081610af99190611d46565b50606082015181600301556080820151816004015560a08201518160050160006101000a81548160ff02191690831515021790555060c08201518160050160016101000a81548173ffffffffffffffffffffffffffffffffffffffff021916908373ffffffffffffffffffffffffffffffffffffffff16021790555090505060005b8351811015610c4157600260008381526020019081526020016000206040518060600160405280600184610baf9190611a68565b8152602001868481518110610bc757610bc66117f8565b5b6020026020010151815260200160008152509080600181540180825580915050600190039060005260206000209060030201600090919091909150600082015181600001556020820151816001019081610c219190611d46565b506040820151816002015550508080610c3990611856565b915050610b7b565b50600080815480929190610c5490611856565b9190505550807fe7a0aae5d733e07e246dea86213a1ac1b0aa8554bde889bb75c12752f44e53d9888787604051610c8d93929190611e18565b60405180910390a28091505095945050505050565b60608060006001600085815260200190815260200160002090508060050160009054906101000a900460ff16610d0d576040517f08c379a0000000000000000000000000000000000000000000000000000000008152600401610d0490611ec8565b60405180910390fd5b6000600260008681526020019081526020016000208054905090508067ffffffffffffffff811115610d4257610d416112ca565b5b604051908082528060200260200182016040528015610d705781602001602082028036833780820191505090505b5093508067ffffffffffffffff811115610d8d57610d8c6112ca565b5b604051908082528060200260200182016040528015610dbb5781602001602082028036833780820191505090505b50925060005b81811015610e8857600260008781526020019081526020016000208181548110610dee57610ded6117f8565b5b906000526020600020906003020160000154858281518110610e1357610e126117f8565b5b602002602001018181525050600260008781526020019081526020016000208181548110610e4457610e436117f8565b5b906000526020600020906003020160020154848281518110610e6957610e686117f8565b5b6020026020010181815250508080610e8090611856565b915050610dc1565b505050915091565b6000604051905090565b600080fd5b600080fd5b6000819050919050565b610eb781610ea4565b8114610ec257600080fd5b50565b600081359050610ed481610eae565b92915050565b60008060408385031215610ef157610ef0610e9a565b5b6000610eff85828601610ec5565b9250506020610f1085828601610ec5565b9150509250929050565b600060208284031215610f3057610f2f610e9a565b5b6000610f3e84828501610ec5565b91505092915050565b600081519050919050565b600082825260208201905092915050565b6000819050602082019050919050565b610f7c81610ea4565b82525050565b6000610f8e8383610f73565b60208301905092915050565b6000602082019050919050565b6000610fb282610f47565b610fbc8185610f52565b9350610fc783610f63565b8060005b83811015610ff8578151610fdf8882610f82565b9750610fea83610f9a565b925050600181019050610fcb565b5085935050505092915050565b600081519050919050565b600082825260208201905092915050565b6000819050602082019050919050565b600081519050919050565b600082825260208201905092915050565b60005b8381101561106b578082015181840152602081019050611050565b60008484015250505050565b6000601f19601f8301169050919050565b600061109382611031565b61109d818561103c565b93506110ad81856020860161104d565b6110b681611077565b840191505092915050565b60006110cd8383611088565b905092915050565b6000602082019050919050565b60006110ed82611005565b6110f78185611010565b93508360208202850161110985611021565b8060005b85811015611145578484038952815161112685826110c1565b9450611131836110d5565b925060208a0199505060018101905061110d565b50829750879550505050505092915050565b600060408201905081810360008301526111718185610fa7565b9050818103602083015261118581846110e2565b90509392505050565b61119781610ea4565b82525050565b600082825260208201905092915050565b60006111b982611031565b6111c3818561119d565b93506111d381856020860161104d565b6111dc81611077565b840191505092915050565b60008115159050919050565b6111fc816111e7565b82525050565b600073ffffffffffffffffffffffffffffffffffffffff82169050919050565b600061122d82611202565b9050919050565b61123d81611222565b82525050565b600060e082019050611258600083018a61118e565b818103602083015261126a81896111ae565b9050818103604083015261127e81886111ae565b905061128d606083018761118e565b61129a608083018661118e565b6112a760a08301856111f3565b6112b460c0830184611234565b98975050505050505050565b600080fd5b600080fd5b7f4e487b7100000000000000000000000000000000000000000000000000000000600052604160045260246000fd5b61130282611077565b810181811067ffffffffffffffff82111715611321576113206112ca565b5b80604052505050565b6000611334610e90565b905061134082826112f9565b919050565b600067ffffffffffffffff8211156113605761135f6112ca565b5b61136982611077565b9050602081019050919050565b82818337600083830152505050565b600061139861139384611345565b61132a565b9050828152602081018484840111156113b4576113b36112c5565b5b6113bf848285611376565b509392505050565b600082601f8301126113dc576113db6112c0565b5b81356113ec848260208601611385565b91505092915050565b600067ffffffffffffffff8211156114105761140f6112ca565b5b602082029050602081019050919050565b600080fd5b6000611439611434846113f5565b61132a565b9050808382526020820190506020840283018581111561145c5761145b611421565b5b835b818110156114a357803567ffffffffffffffff811115611481576114806112c0565b5b80860161148e89826113c7565b8552602085019450505060208101905061145e565b5050509392505050565b600082601f8301126114c2576114c16112c0565b5b81356114d2848260208601611426565b91505092915050565b600080600080600060a086880312156114f7576114f6610e9a565b5b600086013567ffffffffffffffff81111561151557611514610e9f565b5b611521888289016113c7565b955050602086013567ffffffffffffffff81111561154257611541610e9f565b5b61154e888289016113c7565b945050604061155f88828901610ec5565b935050606061157088828901610ec5565b925050608086013567ffffffffffffffff81111561159157611590610e9f565b5b61159d888289016114ad565b9150509295509295909350565b60006020820190506115bf600083018461118e565b92915050565b600060408201905081810360008301526115df8185610fa7565b905081810360208301526115f38184610fa7565b90509392505050565b7f43756f6320626175206375206368756120626174206461750000000000000000600082015250565b600061163260188361119d565b915061163d826115fc565b602082019050919050565b6000602082019050818103600083015261166181611625565b9050919050565b7f43756f6320626175206375206461206b65742074687563000000000000000000600082015250565b600061169e60178361119d565b91506116a982611668565b602082019050919050565b600060208201905081810360008301526116cd81611691565b9050919050565b7f42616e20646120626f2070686965752063686f2063756f63206261752063752060008201527f6e617920726f6900000000000000000000000000000000000000000000000000602082015250565b600061173060278361119d565b915061173b826116d4565b604082019050919050565b6000602082019050818103600083015261175f81611723565b9050919050565b7f43756f6320626175206375206e61792064612064756f6320636f6e6720626f2060008201527f6b65742071756100000000000000000000000000000000000000000000000000602082015250565b60006117c260278361119d565b91506117cd82611766565b604082019050919050565b600060208201905081810360008301526117f1816117b5565b9050919050565b7f4e487b7100000000000000000000000000000000000000000000000000000000600052603260045260246000fd5b7f4e487b7100000000000000000000000000000000000000000000000000000000600052601160045260246000fd5b600061186182610ea4565b91507fffffffffffffffffffffffffffffffffffffffffffffffffffffffffffffffff820361189357611892611827565b5b600182019050919050565b7f556e67207669656e206b686f6e6720746f6e2074616900000000000000000000600082015250565b60006118d460168361119d565b91506118df8261189e565b602082019050919050565b60006020820190508181036000830152611903816118c7565b9050919050565b7f4e487b7100000000000000000000000000000000000000000000000000000000600052602260045260246000fd5b6000600282049050600182168061195157607f821691505b6020821081036119645761196361190a565b5b50919050565b7f43756f63206261752063752063687561206b657420746875632c206b686f6e6760008201527f207468652067696169206d612100000000000000000000000000000000000000602082015250565b60006119c6602d8361119d565b91506119d18261196a565b604082019050919050565b600060208201905081810360008301526119f5816119b9565b9050919050565b7f4b6574207175612064612064756f6320636f6e6720626f20726f692100000000600082015250565b6000611a32601c8361119d565b9150611a3d826119fc565b602082019050919050565b60006020820190508181036000830152611a6181611a25565b9050919050565b6000611a7382610ea4565b9150611a7e83610ea4565b9250828201905080821115611a9657611a95611827565b5b92915050565b7f54686f69206769616e206b657420746875632070686169207361752074686f6960008201527f206769616e206261742064617500000000000000000000000000000000000000602082015250565b6000611af8602d8361119d565b9150611b0382611a9c565b604082019050919050565b60006020820190508181036000830152611b2781611aeb565b9050919050565b7f43616e206974206e686174203220756e67207669656e20646520626175206375600082015250565b6000611b6460208361119d565b9150611b6f82611b2e565b602082019050919050565b60006020820190508181036000830152611b9381611b57565b9050919050565b60008190508160005260206000209050919050565b60006020601f8301049050919050565b600082821b905092915050565b600060088302611bfc7fffffffffffffffffffffffffffffffffffffffffffffffffffffffffffffffff82611bbf565b611c068683611bbf565b95508019841693508086168417925050509392505050565b6000819050919050565b6000611c43611c3e611c3984610ea4565b611c1e565b610ea4565b9050919050565b6000819050919050565b611c5d83611c28565b611c71611c6982611c4a565b848454611bcc565b825550505050565b600090565b611c86611c79565b611c91818484611c54565b505050565b5b81811015611cb557611caa600082611c7e565b600181019050611c97565b5050565b601f821115611cfa57611ccb81611b9a565b611cd484611baf565b81016020851015611ce3578190505b611cf7611cef85611baf565b830182611c96565b50505b505050565b600082821c905092915050565b6000611d1d60001984600802611cff565b1980831691505092915050565b6000611d368383611d0c565b9150826002028217905092915050565b611d4f82611031565b67ffffffffffffffff811115611d6857611d676112ca565b5b611d728254611939565b611d7d828285611cb9565b600060209050601f831160018114611db05760008415611d9e578287015190505b611da88582611d2a565b865550611e10565b601f198416611dbe86611b9a565b60005b82811015611de657848901518255600182019150602085019450602081019050611dc1565b86831015611e035784890151611dff601f891682611d0c565b8355505b6001600288020188555050505b505050505050565b60006060820190508181036000830152611e3281866111ae565b9050611e41602083018561118e565b611e4e604083018461118e565b949350505050565b7f4b6574207175612076616e2064616e672064756f63206d6120686f612074726f60008201527f6e67205445452100000000000000000000000000000000000000000000000000602082015250565b6000611eb260278361119d565b9150611ebd82611e56565b604082019050919050565b60006020820190508181036000830152611ee181611ea5565b905091905056fea264697066735822122080271263bc2b2f3da867e9f46cf4fa07f1d36b3de1bc7fae889d0b7969a7979f64736f6c63430008140033",
  "linkReferences": {},
  "deployedLinkReferences": {}
}